{
  "address": "0xc5AcffD7517D8C2679226f403a5313ee5F64C761",
  "abi": [
    {
      "inputs": [
        {
          "internalType": "address",
          "name": "initialOwner",
          "type": "address"
        }
      ],
      "stateMutability": "nonpayable",
      "type": "constructor"
    },
    {
      "anonymous": false,
      "inputs": [
        {
          "indexed": true,
          "internalType": "address",
          "name": "owner",
          "type": "address"
        },
        {
          "indexed": true,
          "internalType": "address",
          "name": "approved",
          "type": "address"
        },
        {
          "indexed": true,
          "internalType": "uint256",
          "name": "tokenId",
          "type": "uint256"
        }
      ],
      "name": "Approval",
      "type": "event"
    },
    {
      "anonymous": false,
      "inputs": [
        {
          "indexed": true,
          "internalType": "address",
          "name": "owner",
          "type": "address"
        },
        {
          "indexed": true,
          "internalType": "address",
          "name": "operator",
          "type": "address"
        },
        {
          "indexed": false,
          "internalType": "bool",
          "name": "approved",
          "type": "bool"
        }
      ],
      "name": "ApprovalForAll",
      "type": "event"
    },
    {
      "anonymous": false,
      "inputs": [
        {
          "indexed": true,
          "internalType": "uint256",
          "name": "tokenId",
          "type": "uint256"
        },
        {
          "indexed": true,
          "internalType": "address",
          "name": "owner",
          "type": "address"
        },
        {
          "components": [
            {
              "internalType": "string",
              "name": "name",
              "type": "string"
            },
            {
              "internalType": "string",
              "name": "category",
              "type": "string"
            },
            {
              "internalType": "string",
              "name": "description",
              "type": "string"
            },
            {
              "internalType": "string",
              "name": "assetType",
              "type": "string"
            },
            {
              "internalType": "string",
              "name": "legalId",
              "type": "string"
            },
            {
              "internalType": "string",
              "name": "brand",
              "type": "string"
            },
            {
              "internalType": "uint256",
              "name": "estimatedValue",
              "type": "uint256"
            },
            {
              "internalType": "string",
              "name": "imageUrl",
              "type": "string"
            }
          ],
          "indexed": false,
          "internalType": "struct AssetNFT.AssetMetadata",
          "name": "metadata",
          "type": "tuple"
        }
      ],
      "name": "AssetMinted",
      "type": "event"
    },
    {
      "anonymous": false,
      "inputs": [
        {
          "indexed": true,
          "internalType": "address",
          "name": "previousOwner",
          "type": "address"
        },
        {
          "indexed": true,
          "internalType": "address",
          "name": "newOwner",
          "type": "address"
        }
      ],
      "name": "OwnershipTransferred",
      "type": "event"
    },
    {
      "anonymous": false,
      "inputs": [
        {
          "indexed": true,
          "internalType": "address",
          "name": "from",
          "type": "address"
        },
        {
          "indexed": true,
          "internalType": "address",
          "name": "to",
          "type": "address"
        },
        {
          "indexed": true,
          "internalType": "uint256",
          "name": "tokenId",
          "type": "uint256"
        }
      ],
      "name": "Transfer",
      "type": "event"
    },
    {
      "inputs": [
        {
          "internalType": "address",
          "name": "to",
          "type": "address"
        },
        {
          "internalType": "uint256",
          "name": "tokenId",
          "type": "uint256"
        }
      ],
      "name": "approve",
      "outputs": [],
      "stateMutability": "nonpayable",
      "type": "function"
    },
    {
      "inputs": [
        {
          "internalType": "uint256",
          "name": "",
          "type": "uint256"
        }
      ],
      "name": "assetMetadata",
      "outputs": [
        {
          "internalType": "string",
          "name": "name",
          "type": "string"
        },
        {
          "internalType": "string",
          "name": "category",
          "type": "string"
        },
        {
          "internalType": "string",
          "name": "description",
          "type": "string"
        },
        {
          "internalType": "string",
          "name": "assetType",
          "type": "string"
        },
        {
          "internalType": "string",
          "name": "legalId",
          "type": "string"
        },
        {
          "internalType": "string",
          "name": "brand",
          "type": "string"
        },
        {
          "internalType": "uint256",
          "name": "estimatedValue",
          "type": "uint256"
        },
        {
          "internalType": "string",
          "name": "imageUrl",
          "type": "string"
        }
      ],
      "stateMutability": "view",
      "type": "function"
    },
    {
      "inputs": [
        {
          "internalType": "address",
          "name": "owner",
          "type": "address"
        }
      ],
      "name": "balanceOf",
      "outputs": [
        {
          "internalType": "uint256",
          "name": "",
          "type": "uint256"
        }
      ],
      "stateMutability": "view",
      "type": "function"
    },
    {
      "inputs": [
        {
          "internalType": "uint256",
          "name": "tokenId",
          "type": "uint256"
        }
      ],
      "name": "getApproved",
      "outputs": [
        {
          "internalType": "address",
          "name": "",
          "type": "address"
        }
      ],
      "stateMutability": "view",
      "type": "function"
    },
    {
      "inputs": [
        {
          "internalType": "uint256",
          "name": "tokenId",
          "type": "uint256"
        }
      ],
      "name": "getAssetMetadata",
      "outputs": [
        {
          "internalType": "string",
          "name": "name",
          "type": "string"
        },
        {
          "internalType": "string",
          "name": "category",
          "type": "string"
        },
        {
          "internalType": "string",
          "name": "description",
          "type": "string"
        },
        {
          "internalType": "string",
          "name": "assetType",
          "type": "string"
        },
        {
          "internalType": "string",
          "name": "legalId",
          "type": "string"
        },
        {
          "internalType": "string",
          "name": "brand",
          "type": "string"
        },
        {
          "internalType": "uint256",
          "name": "estimatedValue",
          "type": "uint256"
        },
        {
          "internalType": "string",
          "name": "imageUrl",
          "type": "string"
        }
      ],
      "stateMutability": "view",
      "type": "function"
    },
    {
      "inputs": [
        {
          "internalType": "address",
          "name": "owner",
          "type": "address"
        },
        {
          "internalType": "address",
          "name": "operator",
          "type": "address"
        }
      ],
      "name": "isApprovedForAll",
      "outputs": [
        {
          "internalType": "bool",
          "name": "",
          "type": "bool"
        }
      ],
      "stateMutability": "view",
      "type": "function"
    },
    {
      "inputs": [
        {
          "internalType": "address",
          "name": "to",
          "type": "address"
        },
        {
          "internalType": "string",
          "name": "name_",
          "type": "string"
        },
        {
          "internalType": "string",
          "name": "category_",
          "type": "string"
        },
        {
          "internalType": "string",
          "name": "description_",
          "type": "string"
        },
        {
          "internalType": "string",
          "name": "assetType_",
          "type": "string"
        },
        {
          "internalType": "string",
          "name": "legalId_",
          "type": "string"
        },
        {
          "internalType": "string",
          "name": "brand_",
          "type": "string"
        },
        {
          "internalType": "uint256",
          "name": "estimatedValue_",
          "type": "uint256"
        },
        {
          "internalType": "string",
          "name": "imageUrl_",
          "type": "string"
        }
      ],
      "name": "mint",
      "outputs": [
        {
          "internalType": "uint256",
          "name": "",
          "type": "uint256"
        }
      ],
      "stateMutability": "nonpayable",
      "type": "function"
    },
    {
      "inputs": [],
      "name": "name",
      "outputs": [
        {
          "internalType": "string",
          "name": "",
          "type": "string"
        }
      ],
      "stateMutability": "view",
      "type": "function"
    },
    {
      "inputs": [],
      "name": "nextTokenId",
      "outputs": [
        {
          "internalType": "uint256",
          "name": "",
          "type": "uint256"
        }
      ],
      "stateMutability": "view",
      "type": "function"
    },
    {
      "inputs": [],
      "name": "owner",
      "outputs": [
        {
          "internalType": "address",
          "name": "",
          "type": "address"
        }
      ],
      "stateMutability": "view",
      "type": "function"
    },
    {
      "inputs": [
        {
          "internalType": "uint256",
          "name": "tokenId",
          "type": "uint256"
        }
      ],
      "name": "ownerOf",
      "outputs": [
        {
          "internalType": "address",
          "name": "",
          "type": "address"
        }
      ],
      "stateMutability": "view",
      "type": "function"
    },
    {
      "inputs": [],
      "name": "renounceOwnership",
      "outputs": [],
      "stateMutability": "nonpayable",
      "type": "function"
    },
    {
      "inputs": [
        {
          "internalType": "address",
          "name": "from",
          "type": "address"
        },
        {
          "internalType": "address",
          "name": "to",
          "type": "address"
        },
        {
          "internalType": "uint256",
          "name": "tokenId",
          "type": "uint256"
        }
      ],
      "name": "safeTransferFrom",
      "outputs": [],
      "stateMutability": "nonpayable",
      "type": "function"
    },
    {
      "inputs": [
        {
          "internalType": "address",
          "name": "from",
          "type": "address"
        },
        {
          "internalType": "address",
          "name": "to",
          "type": "address"
        },
        {
          "internalType": "uint256",
          "name": "tokenId",
          "type": "uint256"
        },
        {
          "internalType": "bytes",
          "name": "data",
          "type": "bytes"
        }
      ],
      "name": "safeTransferFrom",
      "outputs": [],
      "stateMutability": "nonpayable",
      "type": "function"
    },
    {
      "inputs": [
        {
          "internalType": "address",
          "name": "operator",
          "type": "address"
        },
        {
          "internalType": "bool",
          "name": "approved",
          "type": "bool"
        }
      ],
      "name": "setApprovalForAll",
      "outputs": [],
      "stateMutability": "nonpayable",
      "type": "function"
    },
    {
      "inputs": [
        {
          "internalType": "bytes4",
          "name": "interfaceId",
          "type": "bytes4"
        }
      ],
      "name": "supportsInterface",
      "outputs": [
        {
          "internalType": "bool",
          "name": "",
          "type": "bool"
        }
      ],
      "stateMutability": "view",
      "type": "function"
    },
    {
      "inputs": [],
      "name": "symbol",
      "outputs": [
        {
          "internalType": "string",
          "name": "",
          "type": "string"
        }
      ],
      "stateMutability": "view",
      "type": "function"
    },
    {
      "inputs": [
        {
          "internalType": "uint256",
          "name": "index",
          "type": "uint256"
        }
      ],
      "name": "tokenByIndex",
      "outputs": [
        {
          "internalType": "uint256",
          "name": "",
          "type": "uint256"
        }
      ],
      "stateMutability": "view",
      "type": "function"
    },
    {
      "inputs": [
        {
          "internalType": "address",
          "name": "owner",
          "type": "address"
        },
        {
          "internalType": "uint256",
          "name": "index",
          "type": "uint256"
        }
      ],
      "name": "tokenOfOwnerByIndex",
      "outputs": [
        {
          "internalType": "uint256",
          "name": "",
          "type": "uint256"
        }
      ],
      "stateMutability": "view",
      "type": "function"
    },
    {
      "inputs": [
        {
          "internalType": "uint256",
          "name": "tokenId",
          "type": "uint256"
        }
      ],
      "name": "tokenURI",
      "outputs": [
        {
          "internalType": "string",
          "name": "",
          "type": "string"
        }
      ],
      "stateMutability": "view",
      "type": "function"
    },
    {
      "inputs": [],
      "name": "totalMinted",
      "outputs": [
        {
          "internalType": "uint256",
          "name": "",
          "type": "uint256"
        }
      ],
      "stateMutability": "view",
      "type": "function"
    },
    {
      "inputs": [],
      "name": "totalSupply",
      "outputs": [
        {
          "internalType": "uint256",
          "name": "",
          "type": "uint256"
        }
      ],
      "stateMutability": "view",
      "type": "function"
    },
    {
      "inputs": [
        {
          "internalType": "address",
          "name": "from",
          "type": "address"
        },
        {
          "internalType": "address",
          "name": "to",
          "type": "address"
        },
        {
          "internalType": "uint256",
          "name": "tokenId",
          "type": "uint256"
        }
      ],
      "name": "transferFrom",
      "outputs": [],
      "stateMutability": "nonpayable",
      "type": "function"
    },
    {
      "inputs": [
        {
          "internalType": "address",
          "name": "newOwner",
          "type": "address"
        }
      ],
      "name": "transferOwnership",
      "outputs": [],
      "stateMutability": "nonpayable",
      "type": "function"
    }
  ],
  "transactionHash": "0xe6c75fe82ce3cf608b6246b4d6acdfec40bc397c253a49b15a41fa3d6968cfdb",
  "args": [
    "0x766bcFcc54972643263A24B13a0219bfA88A2513"
  ],
  "numDeployments": 2,
  "solcInputHash": "652068db75a3c692c4c94bd54ab8fa58",
  "bytecode": "0x60806040523480156200001157600080fd5b5060405162002b0238038062002b02833981016040819052620000349162000117565b60405180604001604052806008815260200167105cdcd95d13919560c21b815250604051806040016040528060048152602001631053919560e21b8152508160009081620000839190620001ee565b506001620000928282620001ee565b505050620000af620000a9620000c160201b60201c565b620000c5565b620000ba81620000c5565b50620002ba565b3390565b600a80546001600160a01b038381166001600160a01b0319831681179093556040519116919082907f8be0079c531659141344cd1fd0a4f28419497f9722a3daafe3b4186f6b6457e090600090a35050565b6000602082840312156200012a57600080fd5b81516001600160a01b03811681146200014257600080fd5b9392505050565b634e487b7160e01b600052604160045260246000fd5b600181811c908216806200017457607f821691505b6020821081036200019557634e487b7160e01b600052602260045260246000fd5b50919050565b601f821115620001e957600081815260208120601f850160051c81016020861015620001c45750805b601f850160051c820191505b81811015620001e557828155600101620001d0565b5050505b505050565b81516001600160401b038111156200020a576200020a62000149565b62000222816200021b84546200015f565b846200019b565b602080601f8311600181146200025a5760008415620002415750858301515b600019600386901b1c1916600185901b178555620001e5565b600085815260208120601f198616915b828110156200028b578886015182559484019460019091019084016200026a565b5085821015620002aa5787850151600019600388901b60f8161c191681555b5050505050600190811b01905550565b61283880620002ca6000396000f3fe608060405234801561001057600080fd5b50600436106101585760003560e01c8063715018a6116100c3578063b88d4fde1161007c578063b88d4fde146102ca578063c87b56dd146102dd578063cf2acf84146102f0578063e985e9c514610303578063f2fde38b1461033f578063f43f95f61461035257600080fd5b8063715018a61461028557806375794a3c1461028d5780638da5cb5b1461029657806395d89b41146102a7578063a22cb465146102af578063a2309ff8146102c257600080fd5b80632f745c59116101155780632f745c59146101ff57806342842e0e146102125780634f6ccce714610225578063504e35d3146102385780636352211e1461025f57806370a082311461027257600080fd5b806301ffc9a71461015d57806306fdde0314610185578063081812fc1461019a578063095ea7b3146101c557806318160ddd146101da57806323b872dd146101ec575b600080fd5b61017061016b366004611ef7565b610365565b60405190151581526020015b60405180910390f35b61018d610376565b60405161017c9190611f64565b6101ad6101a8366004611f77565b610408565b6040516001600160a01b03909116815260200161017c565b6101d86101d3366004611fac565b61042f565b005b6008545b60405190815260200161017c565b6101d86101fa366004611fd6565b610549565b6101de61020d366004611fac565b61057a565b6101d8610220366004611fd6565b610610565b6101de610233366004611f77565b61062b565b61024b610246366004611f77565b6106be565b60405161017c989796959493929190612012565b6101ad61026d366004611f77565b610ab6565b6101de6102803660046120b3565b610b16565b6101d8610b9c565b6101de600b5481565b600a546001600160a01b03166101ad565b61018d610bb0565b6101d86102bd3660046120ce565b610bbf565b600b546101de565b6101d86102d8366004612196565b610bce565b61018d6102eb366004611f77565b610c06565b61024b6102fe366004611f77565b610c7a565b610170610311366004612212565b6001600160a01b03918216600090815260056020908152604080832093909416825291909152205460ff1690565b6101d861034d3660046120b3565b6110f6565b6101de610360366004612265565b61116f565b6000610370826112e0565b92915050565b6060600080546103859061239b565b80601f01602080910402602001604051908101604052809291908181526020018280546103b19061239b565b80156103fe5780601f106103d3576101008083540402835291602001916103fe565b820191906000526020600020905b8154815290600101906020018083116103e157829003601f168201915b5050505050905090565b600061041382611305565b506000908152600460205260409020546001600160a01b031690565b600061043a82610ab6565b9050806001600160a01b0316836001600160a01b0316036104ac5760405162461bcd60e51b815260206004820152602160248201527f4552433732313a20617070726f76616c20746f2063757272656e74206f776e656044820152603960f91b60648201526084015b60405180910390fd5b336001600160a01b03821614806104c857506104c88133610311565b61053a5760405162461bcd60e51b815260206004820152603d60248201527f4552433732313a20617070726f76652063616c6c6572206973206e6f7420746f60448201527f6b656e206f776e6572206f7220617070726f76656420666f7220616c6c00000060648201526084016104a3565b6105448383611364565b505050565b61055333826113d2565b61056f5760405162461bcd60e51b81526004016104a3906123d5565b610544838383611451565b600061058583610b16565b82106105e75760405162461bcd60e51b815260206004820152602b60248201527f455243373231456e756d657261626c653a206f776e657220696e646578206f7560448201526a74206f6620626f756e647360a81b60648201526084016104a3565b506001600160a01b03919091166000908152600660209081526040808320938352929052205490565b61054483838360405180602001604052806000815250610bce565b600061063660085490565b82106106995760405162461bcd60e51b815260206004820152602c60248201527f455243373231456e756d657261626c653a20676c6f62616c20696e646578206f60448201526b7574206f6620626f756e647360a01b60648201526084016104a3565b600882815481106106ac576106ac612422565b90600052602060002001549050919050565b600c602052600090815260409020805481906106d99061239b565b80601f01602080910402602001604051908101604052809291908181526020018280546107059061239b565b80156107525780601f1061072757610100808354040283529160200191610752565b820191906000526020600020905b81548152906001019060200180831161073557829003601f168201915b5050505050908060010180546107679061239b565b80601f01602080910402602001604051908101604052809291908181526020018280546107939061239b565b80156107e05780601f106107b5576101008083540402835291602001916107e0565b820191906000526020600020905b8154815290600101906020018083116107c357829003601f168201915b5050505050908060020180546107f59061239b565b80601f01602080910402602001604051908101604052809291908181526020018280546108219061239b565b801561086e5780601f106108435761010080835404028352916020019161086e565b820191906000526020600020905b81548152906001019060200180831161085157829003601f168201915b5050505050908060030180546108839061239b565b80601f01602080910402602001604051908101604052809291908181526020018280546108af9061239b565b80156108fc5780601f106108d1576101008083540402835291602001916108fc565b820191906000526020600020905b8154815290600101906020018083116108df57829003601f168201915b5050505050908060040180546109119061239b565b80601f016020809104026020016040519081016040528092919081815260200182805461093d9061239b565b801561098a5780601f1061095f5761010080835404028352916020019161098a565b820191906000526020600020905b81548152906001019060200180831161096d57829003601f168201915b50505050509080600501805461099f9061239b565b80601f01602080910402602001604051908101604052809291908181526020018280546109cb9061239b565b8015610a185780601f106109ed57610100808354040283529160200191610a18565b820191906000526020600020905b8154815290600101906020018083116109fb57829003601f168201915b505050505090806006015490806007018054610a339061239b565b80601f0160208091040260200160405190810160405280929190818152602001828054610a5f9061239b565b8015610aac5780601f10610a8157610100808354040283529160200191610aac565b820191906000526020600020905b815481529060010190602001808311610a8f57829003601f168201915b5050505050905088565b6000818152600260205260408120546001600160a01b0316806103705760405162461bcd60e51b8152602060048201526018602482015277115490cdcc8c4e881a5b9d985b1a59081d1bdad95b88125160421b60448201526064016104a3565b60006001600160a01b038216610b805760405162461bcd60e51b815260206004820152602960248201527f4552433732313a2061646472657373207a65726f206973206e6f7420612076616044820152683634b21037bbb732b960b91b60648201526084016104a3565b506001600160a01b031660009081526003602052604090205490565b610ba46115c2565b610bae600061161c565b565b6060600180546103859061239b565b610bca33838361166e565b5050565b610bd833836113d2565b610bf45760405162461bcd60e51b81526004016104a3906123d5565b610c008484848461173c565b50505050565b6060610c1182611305565b6000610c2860408051602081019091526000815290565b90506000815111610c485760405180602001604052806000815250610c73565b80610c528461176f565b604051602001610c63929190612438565b6040516020818303038152906040525b9392505050565b606080606080606080600060606000600c60008b815260200190815260200160002060405180610100016040529081600082018054610cb89061239b565b80601f0160208091040260200160405190810160405280929190818152602001828054610ce49061239b565b8015610d315780601f10610d0657610100808354040283529160200191610d31565b820191906000526020600020905b815481529060010190602001808311610d1457829003601f168201915b50505050508152602001600182018054610d4a9061239b565b80601f0160208091040260200160405190810160405280929190818152602001828054610d769061239b565b8015610dc35780601f10610d9857610100808354040283529160200191610dc3565b820191906000526020600020905b815481529060010190602001808311610da657829003601f168201915b50505050508152602001600282018054610ddc9061239b565b80601f0160208091040260200160405190810160405280929190818152602001828054610e089061239b565b8015610e555780601f10610e2a57610100808354040283529160200191610e55565b820191906000526020600020905b815481529060010190602001808311610e3857829003601f168201915b50505050508152602001600382018054610e6e9061239b565b80601f0160208091040260200160405190810160405280929190818152602001828054610e9a9061239b565b8015610ee75780601f10610ebc57610100808354040283529160200191610ee7565b820191906000526020600020905b815481529060010190602001808311610eca57829003601f168201915b50505050508152602001600482018054610f009061239b565b80601f0160208091040260200160405190810160405280929190818152602001828054610f2c9061239b565b8015610f795780601f10610f4e57610100808354040283529160200191610f79565b820191906000526020600020905b815481529060010190602001808311610f5c57829003601f168201915b50505050508152602001600582018054610f929061239b565b80601f0160208091040260200160405190810160405280929190818152602001828054610fbe9061239b565b801561100b5780601f10610fe05761010080835404028352916020019161100b565b820191906000526020600020905b815481529060010190602001808311610fee57829003601f168201915b505050505081526020016006820154815260200160078201805461102e9061239b565b80601f016020809104026020016040519081016040528092919081815260200182805461105a9061239b565b80156110a75780601f1061107c576101008083540402835291602001916110a7565b820191906000526020600020905b81548152906001019060200180831161108a57829003601f168201915b5050505050815250509050806000015181602001518260400151836060015184608001518560a001518660c001518760e001519850985098509850985098509850985050919395975091939597565b6110fe6115c2565b6001600160a01b0381166111635760405162461bcd60e51b815260206004820152602660248201527f4f776e61626c653a206e6577206f776e657220697320746865207a65726f206160448201526564647265737360d01b60648201526084016104a3565b61116c8161161c565b50565b600b8054600091829190826111838361247d565b9190505590506111938b82611802565b6040518061010001604052808b81526020018a815260200189815260200188815260200187815260200186815260200185815260200184815250600c600083815260200190815260200160002060008201518160000190816111f591906124e4565b506020820151600182019061120a90826124e4565b506040820151600282019061121f90826124e4565b506060820151600382019061123490826124e4565b506080820151600482019061124990826124e4565b5060a0820151600582019061125e90826124e4565b5060c0820151600682015560e0820151600782019061127d90826124e4565b5050506000818152600c60205260409081902090516001600160a01b038d169183917fdc3ad6df9c862fe005db07affcce961e6151d76013be9dfababe05cf2550eded916112ca91612621565b60405180910390a39a9950505050505050505050565b60006001600160e01b0319821663780e9d6360e01b148061037057506103708261181c565b6000818152600260205260409020546001600160a01b031661116c5760405162461bcd60e51b8152602060048201526018602482015277115490cdcc8c4e881a5b9d985b1a59081d1bdad95b88125160421b60448201526064016104a3565b600081815260046020526040902080546001600160a01b0319166001600160a01b038416908117909155819061139982610ab6565b6001600160a01b03167f8c5be1e5ebec7d5bd14f71427d1e84f3dd0314c0f7b2291e5b200ac8c7c3b92560405160405180910390a45050565b6000806113de83610ab6565b9050806001600160a01b0316846001600160a01b0316148061142557506001600160a01b0380821660009081526005602090815260408083209388168352929052205460ff165b806114495750836001600160a01b031661143e84610408565b6001600160a01b0316145b949350505050565b826001600160a01b031661146482610ab6565b6001600160a01b03161461148a5760405162461bcd60e51b81526004016104a3906126e8565b6001600160a01b0382166114ec5760405162461bcd60e51b8152602060048201526024808201527f4552433732313a207472616e7366657220746f20746865207a65726f206164646044820152637265737360e01b60648201526084016104a3565b6114f9838383600161186c565b826001600160a01b031661150c82610ab6565b6001600160a01b0316146115325760405162461bcd60e51b81526004016104a3906126e8565b600081815260046020908152604080832080546001600160a01b03199081169091556001600160a01b0387811680865260038552838620805460001901905590871680865283862080546001019055868652600290945282852080549092168417909155905184937fddf252ad1be2c89b69c2b068fc378daa952ba7f163c4a11628f55a4df523b3ef91a4505050565b600a546001600160a01b03163314610bae5760405162461bcd60e51b815260206004820181905260248201527f4f776e61626c653a2063616c6c6572206973206e6f7420746865206f776e657260448201526064016104a3565b600a80546001600160a01b038381166001600160a01b0319831681179093556040519116919082907f8be0079c531659141344cd1fd0a4f28419497f9722a3daafe3b4186f6b6457e090600090a35050565b816001600160a01b0316836001600160a01b0316036116cf5760405162461bcd60e51b815260206004820152601960248201527f4552433732313a20617070726f766520746f2063616c6c65720000000000000060448201526064016104a3565b6001600160a01b03838116600081815260056020908152604080832094871680845294825291829020805460ff191686151590811790915591519182527f17307eab39ab6107e8899845ad3d59bd9653f200f220920489ca2b5937696c31910160405180910390a3505050565b611747848484611451565b61175384848484611878565b610c005760405162461bcd60e51b81526004016104a39061272d565b6060600061177c83611979565b600101905060008167ffffffffffffffff81111561179c5761179c61210a565b6040519080825280601f01601f1916602001820160405280156117c6576020820181803683370190505b5090508181016020015b600019016f181899199a1a9b1b9c1cb0b131b232b360811b600a86061a8153600a85049450846117d057509392505050565b610bca828260405180602001604052806000815250611a51565b60006001600160e01b031982166380ac58cd60e01b148061184d57506001600160e01b03198216635b5e139f60e01b145b8061037057506301ffc9a760e01b6001600160e01b0319831614610370565b610c0084848484611a84565b60006001600160a01b0384163b1561196e57604051630a85bd0160e11b81526001600160a01b0385169063150b7a02906118bc90339089908890889060040161277f565b6020604051808303816000875af19250505080156118f7575060408051601f3d908101601f191682019092526118f4918101906127bc565b60015b611954573d808015611925576040519150601f19603f3d011682016040523d82523d6000602084013e61192a565b606091505b50805160000361194c5760405162461bcd60e51b81526004016104a39061272d565b805181602001fd5b6001600160e01b031916630a85bd0160e11b149050611449565b506001949350505050565b60008072184f03e93ff9f4daa797ed6e38ed64bf6a1f0160401b83106119b85772184f03e93ff9f4daa797ed6e38ed64bf6a1f0160401b830492506040015b6d04ee2d6d415b85acef810000000083106119e4576d04ee2d6d415b85acef8100000000830492506020015b662386f26fc100008310611a0257662386f26fc10000830492506010015b6305f5e1008310611a1a576305f5e100830492506008015b6127108310611a2e57612710830492506004015b60648310611a40576064830492506002015b600a83106103705760010192915050565b611a5b8383611bb8565b611a686000848484611878565b6105445760405162461bcd60e51b81526004016104a39061272d565b6001811115611af35760405162461bcd60e51b815260206004820152603560248201527f455243373231456e756d657261626c653a20636f6e7365637574697665207472604482015274185b9cd9995c9cc81b9bdd081cdd5c1c1bdc9d1959605a1b60648201526084016104a3565b816001600160a01b038516611b4f57611b4a81600880546000838152600960205260408120829055600182018355919091527ff3f7a9fe364faab93b216da50a3214154f22a0a2b415b23a84c8169e8b636ee30155565b611b72565b836001600160a01b0316856001600160a01b031614611b7257611b728582611d51565b6001600160a01b038416611b8e57611b8981611dee565b611bb1565b846001600160a01b0316846001600160a01b031614611bb157611bb18482611e9d565b5050505050565b6001600160a01b038216611c0e5760405162461bcd60e51b815260206004820181905260248201527f4552433732313a206d696e7420746f20746865207a65726f206164647265737360448201526064016104a3565b6000818152600260205260409020546001600160a01b031615611c735760405162461bcd60e51b815260206004820152601c60248201527f4552433732313a20746f6b656e20616c7265616479206d696e7465640000000060448201526064016104a3565b611c8160008383600161186c565b6000818152600260205260409020546001600160a01b031615611ce65760405162461bcd60e51b815260206004820152601c60248201527f4552433732313a20746f6b656e20616c7265616479206d696e7465640000000060448201526064016104a3565b6001600160a01b038216600081815260036020908152604080832080546001019055848352600290915280822080546001600160a01b0319168417905551839291907fddf252ad1be2c89b69c2b068fc378daa952ba7f163c4a11628f55a4df523b3ef908290a45050565b60006001611d5e84610b16565b611d6891906127d9565b600083815260076020526040902054909150808214611dbb576001600160a01b03841660009081526006602090815260408083208584528252808320548484528184208190558352600790915290208190555b5060009182526007602090815260408084208490556001600160a01b039094168352600681528383209183525290812055565b600854600090611e00906001906127d9565b60008381526009602052604081205460088054939450909284908110611e2857611e28612422565b906000526020600020015490508060088381548110611e4957611e49612422565b6000918252602080832090910192909255828152600990915260408082208490558582528120556008805480611e8157611e816127ec565b6001900381819060005260206000200160009055905550505050565b6000611ea883610b16565b6001600160a01b039093166000908152600660209081526040808320868452825280832085905593825260079052919091209190915550565b6001600160e01b03198116811461116c57600080fd5b600060208284031215611f0957600080fd5b8135610c7381611ee1565b60005b83811015611f2f578181015183820152602001611f17565b50506000910152565b60008151808452611f50816020860160208601611f14565b601f01601f19169290920160200192915050565b602081526000610c736020830184611f38565b600060208284031215611f8957600080fd5b5035919050565b80356001600160a01b0381168114611fa757600080fd5b919050565b60008060408385031215611fbf57600080fd5b611fc883611f90565b946020939093013593505050565b600080600060608486031215611feb57600080fd5b611ff484611f90565b925061200260208501611f90565b9150604084013590509250925092565b60006101008083526120268184018c611f38565b9050828103602084015261203a818b611f38565b9050828103604084015261204e818a611f38565b905082810360608401526120628189611f38565b905082810360808401526120768188611f38565b905082810360a084015261208a8187611f38565b90508460c084015282810360e08401526120a48185611f38565b9b9a5050505050505050505050565b6000602082840312156120c557600080fd5b610c7382611f90565b600080604083850312156120e157600080fd5b6120ea83611f90565b9150602083013580151581146120ff57600080fd5b809150509250929050565b634e487b7160e01b600052604160045260246000fd5b600067ffffffffffffffff8084111561213b5761213b61210a565b604051601f8501601f19908116603f011681019082821181831017156121635761216361210a565b8160405280935085815286868601111561217c57600080fd5b858560208301376000602087830101525050509392505050565b600080600080608085870312156121ac57600080fd5b6121b585611f90565b93506121c360208601611f90565b925060408501359150606085013567ffffffffffffffff8111156121e657600080fd5b8501601f810187136121f757600080fd5b61220687823560208401612120565b91505092959194509250565b6000806040838503121561222557600080fd5b61222e83611f90565b915061223c60208401611f90565b90509250929050565b600082601f83011261225657600080fd5b610c7383833560208501612120565b60008060008060008060008060006101208a8c03121561228457600080fd5b61228d8a611f90565b985060208a013567ffffffffffffffff808211156122aa57600080fd5b6122b68d838e01612245565b995060408c01359150808211156122cc57600080fd5b6122d88d838e01612245565b985060608c01359150808211156122ee57600080fd5b6122fa8d838e01612245565b975060808c013591508082111561231057600080fd5b61231c8d838e01612245565b965060a08c013591508082111561233257600080fd5b61233e8d838e01612245565b955060c08c013591508082111561235457600080fd5b6123608d838e01612245565b945060e08c013593506101008c013591508082111561237e57600080fd5b5061238b8c828d01612245565b9150509295985092959850929598565b600181811c908216806123af57607f821691505b6020821081036123cf57634e487b7160e01b600052602260045260246000fd5b50919050565b6020808252602d908201527f4552433732313a2063616c6c6572206973206e6f7420746f6b656e206f776e6560408201526c1c881bdc88185c1c1c9bdd9959609a1b606082015260800190565b634e487b7160e01b600052603260045260246000fd5b6000835161244a818460208801611f14565b83519083019061245e818360208801611f14565b01949350505050565b634e487b7160e01b600052601160045260246000fd5b60006001820161248f5761248f612467565b5060010190565b601f82111561054457600081815260208120601f850160051c810160208610156124bd5750805b601f850160051c820191505b818110156124dc578281556001016124c9565b505050505050565b815167ffffffffffffffff8111156124fe576124fe61210a565b6125128161250c845461239b565b84612496565b602080601f831160018114612547576000841561252f5750858301515b600019600386901b1c1916600185901b1785556124dc565b600085815260208120601f198616915b8281101561257657888601518255948401946001909101908401612557565b50858210156125945787850151600019600388901b60f8161c191681555b5050505050600190811b01905550565b600081546125b18161239b565b8085526020600183811680156125ce57600181146125e857612616565b60ff1985168884015283151560051b880183019550612616565b866000528260002060005b8581101561260e5781548a82018601529083019084016125f3565b890184019650505b505050505092915050565b60208152600061010080602084015261263e6101208401856125a4565b601f198085830301604086015261265882600188016125a4565b91508085830301606086015261267182600288016125a4565b91508085830301608086015261268a82600388016125a4565b9150808583030160a08601526126a382600488016125a4565b9150808583030160c08601526126bc82600588016125a4565b9150600686015460e0860152808583030183860152506126df81600787016125a4565b95945050505050565b60208082526025908201527f4552433732313a207472616e736665722066726f6d20696e636f72726563742060408201526437bbb732b960d91b606082015260800190565b60208082526032908201527f4552433732313a207472616e7366657220746f206e6f6e20455243373231526560408201527131b2b4bb32b91034b6b83632b6b2b73a32b960711b606082015260800190565b6001600160a01b03858116825284166020820152604081018390526080606082018190526000906127b290830184611f38565b9695505050505050565b6000602082840312156127ce57600080fd5b8151610c7381611ee1565b8181038181111561037057610370612467565b634e487b7160e01b600052603160045260246000fdfea2646970667358221220ff0a1933115cd66d702ac61418910e116041725114e99ca96aab9f7515857b1564736f6c63430008140033",
  "devdoc": {
    "events": {
      "Approval(address,address,uint256)": {
        "details": "Emitted when `owner` enables `approved` to manage the `tokenId` token."
      },
      "ApprovalForAll(address,address,bool)": {
        "details": "Emitted when `owner` enables or disables (`approved`) `operator` to manage all of its assets."
      },
      "Transfer(address,address,uint256)": {
        "details": "Emitted when `tokenId` token is transferred from `from` to `to`."
      }
    },
    "kind": "dev",
    "methods": {
      "approve(address,uint256)": {
        "details": "See {IERC721-approve}."
      },
      "balanceOf(address)": {
        "details": "See {IERC721-balanceOf}."
      },
      "getApproved(uint256)": {
        "details": "See {IERC721-getApproved}."
      },
      "isApprovedForAll(address,address)": {
        "details": "See {IERC721-isApprovedForAll}."
      },
      "name()": {
        "details": "See {IERC721Metadata-name}."
      },
      "owner()": {
        "details": "Returns the address of the current owner."
      },
      "ownerOf(uint256)": {
        "details": "See {IERC721-ownerOf}."
      },
      "renounceOwnership()": {
        "details": "Leaves the contract without owner. It will not be possible to call `onlyOwner` functions. Can only be called by the current owner. NOTE: Renouncing ownership will leave the contract without an owner, thereby disabling any functionality that is only available to the owner."
      },
      "safeTransferFrom(address,address,uint256)": {
        "details": "See {IERC721-safeTransferFrom}."
      },
      "safeTransferFrom(address,address,uint256,bytes)": {
        "details": "See {IERC721-safeTransferFrom}."
      },
      "setApprovalForAll(address,bool)": {
        "details": "See {IERC721-setApprovalForAll}."
      },
      "supportsInterface(bytes4)": {
        "details": "See {IERC165-supportsInterface}."
      },
      "symbol()": {
        "details": "See {IERC721Metadata-symbol}."
      },
      "tokenByIndex(uint256)": {
        "details": "See {IERC721Enumerable-tokenByIndex}."
      },
      "tokenOfOwnerByIndex(address,uint256)": {
        "details": "See {IERC721Enumerable-tokenOfOwnerByIndex}."
      },
      "tokenURI(uint256)": {
        "details": "See {IERC721Metadata-tokenURI}."
      },
      "totalSupply()": {
        "details": "See {IERC721Enumerable-totalSupply}."
      },
      "transferFrom(address,address,uint256)": {
        "details": "See {IERC721-transferFrom}."
      },
      "transferOwnership(address)": {
        "details": "Transfers ownership of the contract to a new account (`newOwner`). Can only be called by the current owner."
      }
    },
    "version": 1
  },
  "userdoc": {
    "kind": "user",
    "methods": {},
    "version": 1
  },
  "storageLayout": {
    "storage": [
      {
        "astId": 893,
        "contract": "contracts/AssetNFT.sol:AssetNFT",
        "label": "_name",
        "offset": 0,
        "slot": "0",
        "type": "t_string_storage"
      },
      {
        "astId": 895,
        "contract": "contracts/AssetNFT.sol:AssetNFT",
        "label": "_symbol",
        "offset": 0,
        "slot": "1",
        "type": "t_string_storage"
      },
      {
        "astId": 899,
        "contract": "contracts/AssetNFT.sol:AssetNFT",
        "label": "_owners",
        "offset": 0,
        "slot": "2",
        "type": "t_mapping(t_uint256,t_address)"
      },
      {
        "astId": 903,
        "contract": "contracts/AssetNFT.sol:AssetNFT",
        "label": "_balances",
        "offset": 0,
        "slot": "3",
        "type": "t_mapping(t_address,t_uint256)"
      },
      {
        "astId": 907,
        "contract": "contracts/AssetNFT.sol:AssetNFT",
        "label": "_tokenApprovals",
        "offset": 0,
        "slot": "4",
        "type": "t_mapping(t_uint256,t_address)"
      },
      {
        "astId": 913,
        "contract": "contracts/AssetNFT.sol:AssetNFT",
        "label": "_operatorApprovals",
        "offset": 0,
        "slot": "5",
        "type": "t_mapping(t_address,t_mapping(t_address,t_bool))"
      },
      {
        "astId": 1943,
        "contract": "contracts/AssetNFT.sol:AssetNFT",
        "label": "_ownedTokens",
        "offset": 0,
        "slot": "6",
        "type": "t_mapping(t_address,t_mapping(t_uint256,t_uint256))"
      },
      {
        "astId": 1947,
        "contract": "contracts/AssetNFT.sol:AssetNFT",
        "label": "_ownedTokensIndex",
        "offset": 0,
        "slot": "7",
        "type": "t_mapping(t_uint256,t_uint256)"
      },
      {
        "astId": 1950,
        "contract": "contracts/AssetNFT.sol:AssetNFT",
        "label": "_allTokens",
        "offset": 0,
        "slot": "8",
        "type": "t_array(t_uint256)dyn_storage"
      },
      {
        "astId": 1954,
        "contract": "contracts/AssetNFT.sol:AssetNFT",
        "label": "_allTokensIndex",
        "offset": 0,
        "slot": "9",
        "type": "t_mapping(t_uint256,t_uint256)"
      },
      {
        "astId": 7,
        "contract": "contracts/AssetNFT.sol:AssetNFT",
        "label": "_owner",
        "offset": 0,
        "slot": "10",
        "type": "t_address"
      },
      {
        "astId": 4273,
        "contract": "contracts/AssetNFT.sol:AssetNFT",
        "label": "nextTokenId",
        "offset": 0,
        "slot": "11",
        "type": "t_uint256"
      },
      {
        "astId": 4278,
        "contract": "contracts/AssetNFT.sol:AssetNFT",
        "label": "assetMetadata",
        "offset": 0,
        "slot": "12",
        "type": "t_mapping(t_uint256,t_struct(AssetMetadata)4271_storage)"
      }
    ],
    "types": {
      "t_address": {
        "encoding": "inplace",
        "label": "address",
        "numberOfBytes": "20"
      },
      "t_array(t_uint256)dyn_storage": {
        "base": "t_uint256",
        "encoding": "dynamic_array",
        "label": "uint256[]",
        "numberOfBytes": "32"
      },
      "t_bool": {
        "encoding": "inplace",
        "label": "bool",
        "numberOfBytes": "1"
      },
      "t_mapping(t_address,t_bool)": {
        "encoding": "mapping",
        "key": "t_address",
        "label": "mapping(address => bool)",
        "numberOfBytes": "32",
        "value": "t_bool"
      },
      "t_mapping(t_address,t_mapping(t_address,t_bool))": {
        "encoding": "mapping",
        "key": "t_address",
        "label": "mapping(address => mapping(address => bool))",
        "numberOfBytes": "32",
        "value": "t_mapping(t_address,t_bool)"
      },
      "t_mapping(t_address,t_mapping(t_uint256,t_uint256))": {
        "encoding": "mapping",
        "key": "t_address",
        "label": "mapping(address => mapping(uint256 => uint256))",
        "numberOfBytes": "32",
        "value": "t_mapping(t_uint256,t_uint256)"
      },
      "t_mapping(t_address,t_uint256)": {
        "encoding": "mapping",
        "key": "t_address",
        "label": "mapping(address => uint256)",
        "numberOfBytes": "32",
        "value": "t_uint256"
      },
      "t_mapping(t_uint256,t_address)": {
        "encoding": "mapping",
        "key": "t_uint256",
        "label": "mapping(uint256 => address)",
        "numberOfBytes": "32",
        "value": "t_address"
      },
      "t_mapping(t_uint256,t_struct(AssetMetadata)4271_storage)": {
        "encoding": "mapping",
        "key": "t_uint256",
        "label": "mapping(uint256 => struct AssetNFT.AssetMetadata)",
        "numberOfBytes": "32",
        "value": "t_struct(AssetMetadata)4271_storage"
      },
      "t_mapping(t_uint256,t_uint256)": {
        "encoding": "mapping",
        "key": "t_uint256",
        "label": "mapping(uint256 => uint256)",
        "numberOfBytes": "32",
        "value": "t_uint256"
      },
      "t_string_storage": {
        "encoding": "bytes",
        "label": "string",
        "numberOfBytes": "32"
      },
      "t_struct(AssetMetadata)4271_storage": {
        "encoding": "inplace",
        "label": "struct AssetNFT.AssetMetadata",
        "members": [
          {
            "astId": 4256,
            "contract": "contracts/AssetNFT.sol:AssetNFT",
            "label": "name",
            "offset": 0,
            "slot": "0",
            "type": "t_string_storage"
          },
          {
            "astId": 4258,
            "contract": "contracts/AssetNFT.sol:AssetNFT",
            "label": "category",
            "offset": 0,
            "slot": "1",
            "type": "t_string_storage"
          },
          {
            "astId": 4260,
            "contract": "contracts/AssetNFT.sol:AssetNFT",
            "label": "description",
            "offset": 0,
            "slot": "2",
            "type": "t_string_storage"
          },
          {
            "astId": 4262,
            "contract": "contracts/AssetNFT.sol:AssetNFT",
            "label": "assetType",
            "offset": 0,
            "slot": "3",
            "type": "t_string_storage"
          },
          {
            "astId": 4264,
            "contract": "contracts/AssetNFT.sol:AssetNFT",
            "label": "legalId",
            "offset": 0,
            "slot": "4",
            "type": "t_string_storage"
          },
          {
            "astId": 4266,
            "contract": "contracts/AssetNFT.sol:AssetNFT",
            "label": "brand",
            "offset": 0,
            "slot": "5",
            "type": "t_string_storage"
          },
          {
            "astId": 4268,
            "contract": "contracts/AssetNFT.sol:AssetNFT",
            "label": "estimatedValue",
            "offset": 0,
            "slot": "6",
            "type": "t_uint256"
          },
          {
            "astId": 4270,
            "contract": "contracts/AssetNFT.sol:AssetNFT",
            "label": "imageUrl",
            "offset": 0,
            "slot": "7",
            "type": "t_string_storage"
          }
        ],
        "numberOfBytes": "256"
      },
      "t_uint256": {
        "encoding": "inplace",
        "label": "uint256",
        "numberOfBytes": "32"
      }
    }
  }
}